:040000004AEF00F0D3
:100008005E829EA20AEF00F00CEF00F048EF00F0CD
:100018000001804B812B8651805D8151800A016EE1
:100028008751800A0158D8B01CEF00F01EEF00F08D
:1000380021EF00F08B8422EF00F08B948451805DD7
:100048008151800A016E8551800A0158D8B02FEF7E
:1000580000F031EF00F034EF00F08B8235EF00F064
:100068008B9281BF41EF00F09E0E805D020E815998
:10007800D8A041EF00F043EF00F047EF00F0000E8A
:10008800816F000E806F9E925E921100C3EF0FF099
:100300000000700ED312030ED312E4EC0FF0CEEC0B
:100310000FF0948A949294941F0E936EF20E956E41
:10032000000E00017F6F000E7E6F000E7D6F000ECD
:100330007C6F000E716F000E706F000E736F000EF9
:10034000726F83BCA6EF01F0AAEF01F05C6A5C2A31
:10035000ABEF01F05C6A5C500001746F756B83B8A1
:10036000B4EF01F0B8EF01F05C6A5C2AB9EF01F07C
:100370005C6A5C500001766F776B83BAC2EF01F064
:10038000C6EF01F05C6A5C2AC7EF01F05C6A5C5062
:100390000001786F796B83BED0EF01F0D4EF01F0EC
:1003A0005C6A5C2AD5EF01F05C6A5C5000017A6FF0
:1003B0007B6B74517511D8B4E0EF01F0E2EF01F0FE
:1003C000FFEF01F076517711D8B4E9EF01F0EBEFD0
:1003D00001F0FFEF01F078517911D8B4F2EF01F09C
:1003E000F4EF01F0FFEF01F07A517B11D8B4FBEF8D
:1003F00001F0FDEF01F0FFEF01F0704B712B83A2D4
:1004000004EF02F006EF02F042EF03F070517111B9
:10041000D8A40DEF02F00FEF02F074EF02F07FBFEF
:100420001BEF02F07F5109E11F0E7E5DD8A01BEF8C
:1004300002F01DEF02F021EF02F0000E7F6F000EC0
:100440007E6F7DBF2DEF02F07D5109E1230E7C5DB3
:10045000D8A02DEF02F02FEF02F035EF02F0000EE2
:100460007D6F000E7C6F7E4B7F2B7EC052F07FC075
:1004700053F07C4B7D2B7CC054F07DC055F0000EBA
:10048000576E010E566E860E586E840E596E30EC05
:100490000AF0000174517511D8B451EF02F053EF16
:1004A00002F071EF02F076517711D8B45AEF02F0F2
:1004B0005CEF02F071EF02F078517911D8B463EF7C
:1004C00002F065EF02F071EF02F07A517B11D8B4BF
:1004D0006CEF02F06EEF02F071EF02F08C86D1EF5C
:1004E00003F08C96D1EF03F07FBF80EF02F07F51D5
:1004F00009E1110E7E5DD8A080EF02F082EF02F0DC
:100500008AEF02F07E5120087E6F7F51D8A0E82A42
:1005100000087F6F74517511D8B491EF02F093EF1A
:1005200002F0A3EF02F07FBFA1EF02F07F5107E1DD
:100530000F0E7E5DD8B09FEF02F0A1EF02F0A3EFA7
:1005400002F07E4B7F2B76517711D8B4AAEF02F0E0
:10055000ACEF02F0BCEF02F07FBFB7EF02F07F51CB
:1005600008E17E05D8A0B7EF02F0B9EF02F0BCEFCA
:1005700002F07E07D8A07F0778517911D8B4C3EF75
:1005800002F0C5EF02F0D5EF02F07DBFD0EF02F030
:100590007D5108E17C05D8A0D0EF02F0D2EF02F047
:1005A000D5EF02F07C07D8A07D077A517B11D8B433
:1005B000DCEF02F0DEEF02F0EEEF02F07FBFECEFD7
:1005C00002F07F5107E1110E7E5DD8B0EAEF02F034
:1005D000ECEF02F0EEEF02F07C4B7D2B7EC052F090
:1005E0007FC053F07CC054F07DC055F0000E576EB4
:1005F000000E566E860E586E840E596E30EC0AF060
:10060000000174517511D8B408EF03F00AEF03F03C
:1006100028EF03F076517711D8B411EF03F013EF00
:1006200003F028EF03F078517911D8B41AEF03F0F2
:100630001CEF03F028EF03F07A517B11D8B423EFBD
:1006400003F025EF03F028EF03F08C8629EF03F089
:100650008C9682AA2EEF03F030EF03F0D1EF03F077
:10066000000E716F000E706F1F0E5D6E710E5C6E6E
:100670001E0EE82EFED75C2EFCD75D2EFAD700D0DA
:10068000D1EF03F07FBF4EEF03F07F5109E1110E70
:100690007E5DD8A04EEF03F050EF03F058EF03F06B
:1006A0007E5120087E6F7F51D8A0E82A00087F6F16
:1006B00081A05DEF03F05FEF03F06FEF03F07FBF0A
:1006C0006DEF03F07F5107E10F0E7E5DD8B06BEF49
:1006D00003F06DEF03F06FEF03F07E4B7F2B81A2F1
:1006E00074EF03F076EF03F086EF03F07FBF81EF46
:1006F00003F07F5108E17E05D8A081EF03F083EF7E
:1007000003F086EF03F07E07D8A07F0781A48BEF6C
:1007100003F08DEF03F09DEF03F07DBF98EF03F042
:100720007D5108E17C05D8A098EF03F09AEF03F023
:100730009DEF03F07C07D8A07D0781A6A2EF03F010
:10074000A4EF03F0B4EF03F07FBFB2EF03F07F51EB
:1007500007E1110E7E5DD8B0B0EF03F0B2EF03F009
:10076000B4EF03F07C4B7D2B7EC052F07FC053F082
:100770007CC054F07DC055F0000E576E000E566ED2
:10078000860E586E840E596E30EC0AF081A8CBEFBD
:1007900003F0CDEF03F0D0EF03F08C86D1EF03F040
:1007A0008C960001724B732B72C002F073C003F081
:1007B000000E056E0A0E046E34EC0FF002500310AA
:1007C000D8A4E5EF03F0E7EF03F0A1EF01F07EC05E
:1007D00018F07FC019F07CC01AF07DC01BF08BECC4
:1007E0000FF0000E0001736F000E726FA1EF01F0A9
:1007F0004AEF00F04550800B4E6E45504524506E38
:1008000044AE05EF04F007EF04F008EF04F0508069
:100810005050D8B40EEF04F010EF04F024EF04F0C1
:100820005028D8A416EF04F018EF04F020EF04F0DD
:10083000000E426E000E436E000E446E000E456EBA
:10084000448E456A2CEF04F0000E426E000E436E9B
:10085000000E446E000E456E4950800B4F6E4E5098
:100860004F18D8B436EF04F038EF04F039EF04F045
:100870004E8C495049244F6E48AE41EF04F043EF8F
:1008800004F044EF04F04F804F50D8B44AEF04F026
:100890004CEF04F060EF04F04F28D8A452EF04F0BE
:1008A00054EF04F05CEF04F0000E466E000E476E4D
:1008B000000E486E000E496E488E496A68EF04F0DB
:1008C000000E466E000E476E000E486E000E496E1A
:1008D00050504F5CD8B06FEF04F071EF04F098EF18
:1008E00004F04EAC76EF04F078EF04F07AEF04F009
:1008F000800E4E1A50C051F04FC050F051C04FF012
:1009000042C051F046C042F051C046F043C051F0E1
:1009100047C043F051C047F044C051F048C044F0D4
:1009200051C048F045C051F049C045F051C049F0B0
:10093000516A50504FC04AF04B6A4A5E000E4B5A03
:100940004BBEACEF04F04B5009E11A0E4A5CD8A044
:10095000ACEF04F0AEEF04F0E5EF04F042504310CA
:1009600044104510D8A4B7EF04F0BAEF04F0010E1C
:10097000BBEF04F0000E516E000E426E000E436E8F
:10098000000E446E000E456E4FC050F0EEEF04F0C6
:1009900051A0CDEF04F0CFEF04F0D5EF04F0D890E4
:1009A00051300109516ED7EF04F0D890513242A076
:1009B000DCEF04F0DEEF04F0DFEF04F0518E45349D
:1009C0004532443243324232502A4F50505CD8A014
:1009D000ECEF04F0EEEF04F0C8EF04F04EBCF3EFE0
:1009E00004F0F5EF04F035EF05F05050D8A4FBEF1C
:1009F00004F0FDEF04F007EF05F0000E426E000E6C
:100A0000436E000E446E000E456E54EF06F04650E5
:100A1000422647504322485044224950452245A08F
:100A200014EF05F016EF05F0C2EF05F051A01BEF33
:100A300005F01DEF05F023EF05F0D89051300109C6
:100A4000516E25EF05F0D890513242A02AEF05F003
:100A50002CEF05F02DEF05F0518E45344532443230
:100A600043324232502AC2EF05F04650425C4750B2
:100A70004358485044584550800A4A6E4950800AAD
:100A80004A58D8B046EF05F048EF05F073EF05F08F
:100A90004250465C4A6E435047584B6E445048584B
:100AA0004C6E455049584D6EFF0E4A24426EFF0E63
:100AB0004B20436EFF0E4C20446EFF0E4D20456EC2
:100AC000800E4E1A516C5150D8A469EF05F06BEFAF
:100AD00005F07BEF05F0010E4226000E4322442272
:100AE00045227BEF05F04650425E4750435A48503E
:100AF000445A4950455A4250431044104510D8A416
:100B000084EF05F086EF05F0BBEF05F05150D8A457
:100B10008CEF05F08EEF05F0BBEF05F0000E426E96
:100B2000000E436E000E446E000E456E54EF06F04C
:100B3000D890423643364436453651AEA2EF05F0E2
:100B4000A4EF05F0A5EF05F0428051A0AAEF05F053
:100B5000ACEF05F0B0EF05F0D8805136B2EF05F0FC
:100B6000D89051365050D8B4B8EF05F0BAEF05F030
:100B7000BBEF05F0500644AEC0EF05F0C2EF05F044
:100B800098EF05F04F6A51AEC8EF05F0CAEF05F0D7
:100B9000E2EF05F051C04AF07F0E4A16D8B4D3EF09
:100BA00005F0D5EF05F0D9EF05F0010E4F6EE2EF3D
:100BB00005F042A0DEEF05F0E0EF05F0E2EF05F012
:100BC000D5EF05F04F50D8B4E8EF05F0EAEF05F0A7
:100BD00015EF06F0010E4226000E43224422452264
:100BE00045A0F5EF05F0F7EF05F015EF06F042C070
:100BF0004AF043C04BF044C04CF045C04DF04D347A
:100C00004D324C324B324A324AC042F04BC043F074
:100C10004CC044F04DC045F05028D8B412EF06F057
:100C200014EF06F015EF06F0502A5028D8B41BEF49
:100C300006F01DEF06F025EF06F05050D8A423EF84
:100C400006F025EF06F036EF06F0000E426E000EBD
:100C5000436E000E446E000E456E5050D8A433EF24
:100C600006F035EF06F036EF06F04E6A50A03BEF87
:100C700006F03DEF06F040EF06F0448E41EF06F03F
:100C8000449ED8905030456E4EAE49EF06F04BEF83
:100C900006F04CEF06F0458E42C042F043C043F0F0
:100CA00044C044F045C045F012002C50800B356E16
:100CB0002C502C243B6E2BAE60EF06F062EF06F05A
:100CC00063EF06F03B803B50D8B469EF06F06BEF62
:100CD00006F07EEF06F03B28D8A471EF06F073EF24
:100CE00006F07BEF06F0000E296E000E2A6E000E55
:100CF0002B6E000E2C6E2B8E86EF06F0000E296EEA
:100D0000000E2A6E000E2B6E000E2C6E3050800BE3
:100D1000351A305030243A6E2FAE91EF06F093EF33
:100D200006F094EF06F03A803A50D8B49AEF06F005
:100D30009CEF06F0AFEF06F03A28D8A4A2EF06F039
:100D4000A4EF06F0ACEF06F0000E2D6E000E2E6E36
:100D5000000E2F6E000E306E2F8EB7EF06F0000ED5
:100D60002D6E000E2E6E000E2F6E000E306E3A505D
:100D7000D8B4BDEF06F0BFEF06F0C7EF06F03B506A
:100D8000D8A4C5EF06F0C7EF06F0D1EF06F0000ECD
:100D9000296E000E2A6E000E2B6E000E2C6E67EF71
:100DA00008F02F502902F3CF40F0F4CF41F040502B
:100DB000366E376A386A396A41503C6E3D6A3E6A1F
:100DC0003F6A2E502A02F3CF40F0F4CF41F040505A
:100DD0003626000E37223822392241503C26000E9A
:100DE0003D223E223F222D502B02F3CF40F0F4CF84
:100DF00041F040503626000E372238223922415029
:100E00003C26000E3D223E223F2238C039F037C03A
:100E100038F036C037F0366A2D502A02F3CF40F052
:100E2000F4CF41F04050362641503722000E382290
:100E3000000E39222E502902F3CF40F0F4CF41F0BA
:100E40004050362641503722000E3822000E3922FB
:100E500038C039F037C038F036C037F0366A2D5018
:100E60002902F3CF40F0F4CF41F0405036264150F4
:100E70003722000E3822000E39222F502A02F3CFDB
:100E800040F0F4CF41F040503C2641503D22000E4E
:100E90003E22000E3F222E502B02F3CF40F0F4CF23
:100EA00041F040503C2641503D22000E3E22000EB3
:100EB0003F222F502B02F3CF40F0F4CF41F04050AF
:100EC000316E4150326E336A346A33C034F032C00E
:100ED00033F031C032F0316A31503C2632503D227D
:100EE00033503E2234503F2236C031F037C032F00A
:100EF00038C033F039C034F0190E84EF07F0D890C1
:100F00003432333232323132E82E7FEF07F0315053
:100F10003C2632503D2233503E2234503F2238C0CE
:100F200039F037C038F036C037F0366A3A503BC037
:100F300031F0326A3126000E3222820E3124406EA8
:100F4000FF0E3220416EBAEF07F0D8903C363D36A6
:100F50003E363F3639AEAFEF07F0B1EF07F0B2EFF4
:100F600007F03C80D890363637363836393640066A
:100F7000D8A041063EAEBFEF07F0C1EF07F0A5EFE6
:100F800007F03A6A39AEC7EF07F0C9EF07F0EDEFA7
:100F900007F0FF0E3614316EFF0E3714326EFF0E5F
:100FA0003814336E7F0E3914346E315032103310D2
:100FB0003410D8B4DEEF07F0E0EF07F0E4EF07F00D
:100FC000010E3A6EEDEF07F03CA0E9EF07F0EBEF12
:100FD00007F0EDEF07F0E0EF07F03A50D8B4F3EF89
:100FE00007F0F5EF07F019EF08F0010E3C26000EB0
:100FF0003D223E223F223FA000EF08F002EF08F022
:1010000019EF08F03CC031F03DC032F03EC033F083
:101010003FC034F03434343233323232313231C0C2
:101020003CF032C03DF033C03EF034C03FF0404AA7
:10103000412A41BE24EF08F0415008E14028D8A0E1
:1010400024EF08F026EF08F030EF08F0000E3C6EB9
:10105000000E3D6E800E3E6E7F0E3F6E5DEF08F01F
:1010600041BE3DEF08F0415006E14004D8B03BEFEF
:1010700008F03DEF08F048EF08F0000E3C6E000E5F
:101080003D6E000E3E6E000E3F6E356A5DEF08F05D
:1010900040C03BF0FF0E3C16FF0E3D167F0E3E1685
:1010A000000E3F163BA057EF08F059EF08F05AEF3B
:1010B00008F03E8ED8903B303F6E35503F123CC01A
:1010C00029F03DC02AF03EC02BF03FC02CF01200AA
:1010D0001350800B206E13501324276E12AE73EF43
:1010E00008F075EF08F076EF08F027802750D8B4A5
:1010F0007CEF08F07EEF08F092EF08F02728D8A4E4
:1011000084EF08F086EF08F08EEF08F0000E106E06
:10111000000E116E000E126E000E136E128E136A08
:101120009AEF08F0000E106E000E116E000E126E97
:10113000000E136E1750800B201A17501724286EBC
:1011400016AEA5EF08F0A7EF08F0A8EF08F028808A
:101150002850D8B4AEEF08F0B0EF08F0C4EF08F0B4
:101160002828D8A4B6EF08F0B8EF08F0C0EF08F0D0
:10117000000E146E000E156E000E166E000E176E29
:10118000168E176ACCEF08F0000E146E000E156E66
:10119000000E166E000E176E145015101610171054
:1011A000D8A4D5EF08F0D7EF08F0EFEF08F0000E65
:1011B000106E000E116E000E126E000E136E800E79
:1011C00012127F0E13122050131210C010F011C013
:1011D00011F012C012F013C013F02FEF0AF02750D5
:1011E000D8A4F5EF08F0F7EF08F001EF09F0000ED2
:1011F000106E000E116E000E126E000E136E2FEFA9
:101200000AF0285027C018F0196A185E000E195A03
:101210007F0E1824216E000E1920226E10C01CF0C3
:1012200011C01DF012C01EF013C01FF0000E106E92
:10123000000E116E000E126E000E136E000E236E65
:10124000000E246E000E256E000E266E286A61EFD9
:1012500009F02850D8B42FEF09F031EF09F048EF2A
:1012600009F0D8901C361D361E361F36D890103621
:1012700011361236133626AE40EF09F042EF09F070
:1012800043EF09F01080D8902336243625362636D1
:1012900014501C5C15501D5816501E5817501F58DE
:1012A000D8A055EF09F057EF09F060EF09F0268C50
:1012B00014501C5E15501D5A16501E5A17501F5AB6
:1012C000282A190E286467EF09F069EF09F029EF61
:1012D00009F01C501D101E101F10D8B472EF09F039
:1012E00074EF09F08CEF09F023808CEF09F0D890AF
:1012F000103611361236133626AE81EF09F083EF21
:1013000009F084EF09F01080D89023362436253672
:1013100026362106D8A0220612AE91EF09F093EFEF
:1013200009F077EF09F0286A26AE99EF09F09BEFF4
:1013300009F0BFEF09F0FF0E2314186EFF0E2414FE
:10134000196EFF0E25141A6E7F0E26141B6E185090
:1013500019101A101B10D8B4B0EF09F0B2EF09F051
:10136000B6EF09F0010E286EBFEF09F010A0BBEF39
:1013700009F0BDEF09F0BFEF09F0B2EF09F0285016
:10138000D8B4C5EF09F0C7EF09F0EBEF09F0010E93
:101390001026000E11221222132213A0D2EF09F000
:1013A000D4EF09F0EBEF09F010C018F011C019F0FC
:1013B00012C01AF013C01BF01B341B321A32193240
:1013C000183218C010F019C011F01AC012F01BC06A
:1013D00013F0214A222A22BEF6EF09F0225008E13A
:1013E0002128D8A0F6EF09F0F8EF09F003EF0AF092
:1013F000000E226E2168000E106E000E116E000E9F
:10140000126E000E136E22BE10EF0AF0225006E19B
:101410002104D8B00EEF0AF010EF0AF01DEF0AF029
:10142000000E226E000E216E000E106E000E116E68
:10143000000E126E000E136E206A21C027F027A046
:1014400024EF0AF026EF0AF029EF0AF0128E2AEFB5
:101450000AF0129ED8902730136EE3EF08F01200C6
:10146000000E00016F6F000E6E6F000E6D6F000EAC
:101470006C6F52C00AF053C00BF054C00CF055C052
:101480000DF06E0E0E6E6C0E0F6E56C010F057C043
:1014900011F090EC0BF00A0E2D6ED70E2E6EA30EEF
:1014A0002F6E3D0E306E000E146E000E156E340E53
:1014B000166E430E176EB40E5A6E000E5B6E000170
:1014C0006E515A5E6F515B5A5AC002F05BC003F016
:1014D000000E03BEFF0E046E056E010EB7EC0CF09D
:1014E00002C010F003C011F004C012F005C013F0E8
:1014F00068EC08F010C029F011C02AF012C02BF0DF
:1015000013C02CF055EC06F029C042F02AC043F07D
:101510002BC044F02CC045F0290E466E5C0E476E81
:101520000F0E486E3D0E496EFAEC03F042C060F0BB
:1015300043C061F044C062F045C063F00A0E2D6EF6
:10154000D70E2E6EA30E2F6E3C0E306E60C029F0AB
:1015500061C02AF062C02BF063C02CF055EC06F09D
:1015600029C068F02AC069F02BC06AF02CC06BF06B
:10157000000E146E000E156EF00E166E410E176EF4
:10158000000E2D6E240E2E6E740E2F6E490E306ED0
:1015900068C029F069C02AF06AC02BF06BC02CF03B
:1015A00055EC06F029C010F02AC011F02BC012F043
:1015B0002CC013F068EC08F010C042F011C043F0EA
:1015C00012C044F013C045F091EC0DF05850D96EA4
:1015D000DA6A42C0DEFF43C0DDFFCD0E2D6ECC0EB9
:1015E0002E6E4C0E2F6E3D0E306E000E146E000EE1
:1015F000156EB40E166E420E176E5A0E5A6E000E0F
:101600005B6E00016C515A5E6D515B5A5AC002F01C
:101610005BC003F0000E03BEFF0E046E056E010EEC
:10162000B7EC0CF002C010F003C011F004C012F0CF
:1016300005C013F068EC08F010C029F011C02AF0C2
:1016400012C02BF013C02CF055EC06F029C042F06C
:101650002AC043F02BC044F02CC045F00A0E466E61
:10166000D70E476E230E486E3D0E496EFAEC03F01E
:1016700042C064F043C065F044C066F045C067F006
:101680000A0E2D6ED70E2E6EA30E2F6E3C0E306EF0
:1016900064C029F065C02AF066C02BF067C02CF04A
:1016A00055EC06F029C068F02AC069F02BC06AF03A
:1016B0002CC06BF0000E146E000E156EF00E166E40
:1016C000410E176E000E2D6E240E2E6E740E2F6EB0
:1016D000490E306E68C029F069C02AF06AC02BF04C
:1016E0006BC02CF055EC06F029C010F02AC011F0A8
:1016F0002BC012F02CC013F068EC08F010C042F0C0
:1017000011C043F012C044F013C045F091EC0DF04D
:101710005950D96EDA6A42C0DEFF43C0DDFF1200C5
:101720000BBE9EEF0BF00B5007E1100E0A5CD8B019
:101730009CEF0BF09EEF0BF015EF0CF00AA0A3EF5F
:101740000BF0A5EF0BF0CCEF0BF010041110D8A4A8
:10175000ACEF0BF0AEEF0BF0CCEF0BF0FB0E126E1C
:10176000FF0E136E12500C02F3CF14F0F4CF15F0ED
:101770000D02F350152613500C02F3501526B40E2B
:101780001426000E15220E50D96EDA6A14C0DEFF40
:1017900015C0DDFFF9EF0BF00AB0D1EF0BF0D3EF7E
:1017A0000BF0EEEF0BF010041110D8A4DAEF0BF0F1
:1017B000DCEF0BF0EEEF0BF0050E0C02F3CF12F0A6
:1017C000F4CF13F00D02F35013260E50D96EDA6ADF
:1017D00012C0DEFF13C0DDFFF9EF0BF01050111047
:1017E000D8A4F5EF0BF0F7EF0BF0F9EF0BF0DCEF0F
:1017F0000BF0500E0A02F3CF12F0F4CF13F00B02ED
:10180000F350132612C002F013C003F0000E056E51
:10181000100E046E14EC0EF00F50D96EDA6A02C08E
:10182000DEFF03C0DDFFB6EF0CF00BBE21EF0CF0C6
:101830000B5009E1100E0A5CD8A021EF0CF023EF49
:101840000CF0B6EF0CF00BBE31EF0CF00B5007E1D3
:10185000200E0A5CD8B02FEF0CF031EF0CF0B6EF91
:101860000CF00AA036EF0CF038EF0CF05FEF0CF044
:1018700010041110D8A43FEF0CF041EF0CF05FEF13
:101880000CF0FB0E126EFF0E136E12500C02F3CF13
:1018900014F0F4CF15F00D02F350152613500C027E
:1018A000F3501526B40E1426000E15220E50D96ED4
:1018B000DA6A14C0DEFF15C0DDFF8CEF0CF00AB051
:1018C00064EF0CF066EF0CF081EF0CF010041110D7
:1018D000D8A46DEF0CF06FEF0CF081EF0CF0050E5B
:1018E0000C02F3CF12F0F4CF13F00D02F3501326D5
:1018F0000E50D96EDA6A12C0DEFF13C0DDFF8CEF26
:101900000CF010501110D8A488EF0CF08AEF0CF0F6
:101910008CEF0CF06FEF0CF0F10E0A24126EFF0E3C
:101920000B20136E500E1202F3CF14F0F4CF15F00B
:101930001302F350152614C002F015C003F0000E78
:10194000056E100E046E14EC0EF002505008166E68
:101950000350D8A0E82A0008176E0F50D96EDA6A33
:1019600016C0DEFF17C0DDFFB6EF0CF012000A6EE6
:101970000A50D8B4BEEF0CF0C0EF0CF0E2EF0CF060
:1019800005BEC7EF0CF0C5EF0CF0E2EF0CF002C0A3
:1019900006F003C007F004C008F005C009F0061EF9
:1019A000071E081E091E062A000E07220822092209
:1019B00006C00CF007C00DF008C00EF009C00FF013
:1019C000EAEF0CF002C00CF003C00DF004C00EF002
:1019D00005C00FF00250031004100510D8A4F3EF57
:1019E0000CF0F5EF0CF0FFEF0CF0000E026E000EA5
:1019F000036E000E046E000E056E90EF0DF0960E55
:101A00000B6E09EF0DF00B2AD8900F320E320D320B
:101A10000C32000E0C14066E000E0D14076E000E34
:101A20000E14086EFE0E0F14096E065007100810F3
:101A30000910D8A41EEF0DF020EF0DF003EF0DF00C
:101A40002EEF0DF00B2A010E0C26000E0D220E2299
:101A50000F22D8900F320E320D320C32000E0C14C1
:101A6000066E000E0D14076E000E0E14086EFF0EAB
:101A70000F14096E0650071008100910D8A443EF80
:101A80000DF045EF0DF022EF0DF04DEF0DF00B06D0
:101A9000D8900C360D360E360F360EBE52EF0DF0C6
:101AA00054EF0DF05CEF0DF0020E0B605AEF0DF0ED
:101AB0005CEF0DF047EF0DF00BB061EF0DF063EF51
:101AC0000DF064EF0DF00E9ED8900B320BC006F0B7
:101AD000076A086A096A06C009F0086A076A066A9E
:101AE00006500C1207500D1208500E1209500F121A
:101AF0000A50D8B47EEF0DF080EF0DF088EF0DF0B6
:101B000005BE87EF0DF085EF0DF088EF0DF00F8E1D
:101B10000CC002F00DC003F00EC004F00FC005F0C1
:101B20001200443445344B6E4B50D8A49AEF0DF05C
:101B30009CEF0DF0A6EF0DF0000E426E000E436E0E
:101B4000000E446E000E456E13EF0EF042C046F0DC
:101B500043C047F044C048F045C049F0200EB6EFFE
:101B60000DF0D8904932483247324632E82EB1EF74
:101B70000DF046504A6E448EFF0E4216FF0E43167D
:101B8000FF0E4416000E4516960E4B5E4BBECDEF73
:101B90000DF0CBEF0DF0E3EF0DF04B50800A970FF7
:101BA000D8B0D5EF0DF0D7EF0DF0D9EF0DF09CEFD9
:101BB0000DF0D89045324432433242324B3ED9EF99
:101BC0000DF0FBEF0DF01F0E4B64E9EF0DF0EBEFA6
:101BD0000DF0F3EF0DF09CEF0DF0D8904236433648
:101BE000443645364B064B50D8A4F9EF0DF0FBEFC9
:101BF0000DF0EDEF0DF04A50D8B401EF0EF003EF09
:101C00000EF00BEF0EF0451E441E431E426C000EFC
:101C100043224422452242C042F043C043F044C024
:101C200044F045C045F01200076A05BE1CEF0EF0F7
:101C30001AEF0EF022EF0EF0046C051ED8B0052A44
:101C4000010E076E03BE29EF0EF027EF0EF02FEF07
:101C50000EF0026C031ED8B0032A010E071A000E04
:101C6000096E000E086E04500510D8B43AEF0EF05D
:101C70003CEF0EF064EF0EF0010E066E44EF0EF036
:101C8000D89004360536062A05AE49EF0EF04BEF24
:101C90000EF040EF0EF0D890083609360450025C82
:101CA00005500358D8A057EF0EF059EF0EF05EEF35
:101CB0000EF00450025E0550035A0880D890053299
:101CC0000432062E4BEF0EF00750D8B46AEF0EF038
:101CD0006CEF0EF070EF0EF0086C091ED8B0092AF8
:101CE00008C002F009C003F012000BBE7CEF0EF03A
:101CF0007AEF0EF080EF0EF0000E0B6E000E0A6E03
:101D00000BBE8CEF0EF00B5009E1B50E0A5CD8A0AB
:101D10008CEF0EF08EEF0EF092EF0EF0000E0B6EC9
:101D2000B40E0A6E0AC002F00BC003F0000E056E7E
:101D3000120E046E14EC0EF002C00AF003C00BF099
:101D40000AB0A5EF0EF0A7EF0EF0B6EF0EF0120EF0
:101D50000A02F3CF0CF0F4CF0DF00B02F3500D2676
:101D60000CC00AF00DC00BF0C9EF0EF0010E0A24F2
:101D70000C6E000E0B200D6E120E0C02F3CF0EF047
:101D8000F4CF0FF00D02F3500F260EC00AF00FC073
:101D90000BF00AC002F0036A000E056E240E046EFA
:101DA00014EC0EF002500A0F12000BBEDCEF0EF026
:101DB000DAEF0EF0E0EF0EF0000E0B6E000E0A6E82
:101DC0000BBEECEF0EF00B5009E15B0E0A5CD8A0E5
:101DD000ECEF0EF0EEEF0EF0F2EF0EF0000E0B6EE9
:101DE0005A0E0A6E0AC002F00BC003F0000E056E18
:101DF000090E046E14EC0EF002C00AF003C00BF0E2
:101E00000AB005EF0FF007EF0FF016EF0FF0090E15
:101E10000A02F3CF0CF0F4CF0DF00B02F3500D26B5
:101E20000CC00AF00DC00BF029EF0FF0010E0A24D0
:101E30000C6E000E0B200D6E090E0C02F3CF0EF08F
:101E4000F4CF0FF00D02F3500F260EC00AF00FC0B2
:101E50000BF00AC002F0036A000E056E120E046E4B
:101E600014EC0EF002501200076A03BE3CEF0FF0B4
:101E70003AEF0FF042EF0FF0026C031ED8B0032AC6
:101E8000010E076E05BE49EF0FF047EF0FF04DEF63
:101E90000FF0046C051ED8B0052A04500510D8B404
:101EA00054EF0FF056EF0FF07AEF0FF0010E066EC1
:101EB0005EEF0FF0D89004360536062A05AE63EFC4
:101EC0000FF065EF0FF05AEF0FF00450025C055071
:101ED0000358D8A06EEF0FF070EF0FF074EF0FF013
:101EE0000450025E0550035AD89005320432062E83
:101EF00065EF0FF00750D8B480EF0FF082EF0FF0CE
:101F000086EF0FF0026C031ED8B0032A02C002F065
:101F100003C003F01200000E246E000E236E000EAC
:101F2000226E000E216E18C00AF019C00BF01AC004
:101F30000CF01BC00DF0230E0E6E210E0F6E000E66
:101F4000116E000E106E90EC0BF023C00AF024C04E
:101F50000BF075EC0EF01E6E21C00AF022C00BF0E3
:101F6000D5EC0EF01F6E1FC01CF00F0E1C161EC00D
:101F70001DF00F0E1D161D38F00B1C10206E20508A
:101F8000D9EC0FF0120000EE80F0080EEE6AE806C1
:101F9000FDE15E905E92000181EF01F0FC0ECA1639
:101FA000090ECB6ECC6A9E929D82F28EF28CCA8410
:101FB0001200026EACA2DFEF0FF0E1EF0FF0DAEFEC
:101FC0000FF002C0ADFF1200949C948EAC84AA96D0
:0C1FD0000C0EAF6EAC98AB8EAC8A120009
:020000040030CA
:0E000000FFC80E3E3C9D81FF0FC00FE00F4079
:00000001FF
